:020000040800F2
:100000009004002059110008D90C0008DB0C0008EE
:10001000DF0C0008E30C0008E70C000800000000FB
:10002000000000000000000000000000EB0C0008D1
:10003000ED0C000800000000EF0C0008F10C0008B7
:100040007311000873110008731100087311000880
:100050007311000873110008731100087311000870
:100060007311000873110008731100087311000860
:100070007311000873110008731100087311000850
:100080007311000873110008731100087311000840
:100090007311000873110008731100087311000830
:1000A0007311000873110008731100087311000820
:1000B0007311000873110008731100087311000810
:1000C0007311000873110008731100087311000800
:1000D00073110008C10C00087311000873110008A7
:1000E00073110008731100087311000873110008E0
:1000F00073110008731100087311000873110008D0
:1001000073110008731100087311000873110008BF
:1001100073110008731100087311000873110008AF
:10012000731100087311000873110008731100089F
:10013000DFF80CD001F026FE00480047AF0C0008A5
:100140009004002070B50446002520E004F08000F3
:1001500020B18021F74801F08CF903E08021F548B7
:1001600001F089F9142000F0D0FE2021F14801F0BF
:1001700082F9142000F0C9FE2021EE4801F079F93F
:10018000142000F0C2FE6006040E681CC5B2082DE3
:10019000DCDB70BD70B504460D467E2000EA4406E7
:1001A0001021E44801F067F93046FFF7CBFF2846FD
:1001B000FFF7C8FF1021DF4801F05BF970BD70B593
:1001C00000251CE06006040E2021DA4801F053F9F6
:1001D000142000F09AFE4021D64801F030F90128A1
:1001E00001D144F00104142000F08FFE2021D148F9
:1001F00001F03FF9142000F088FE681CC5B2082DFC
:10020000E0DB204670BD70B504467E2000EA440065
:1002100040F080051021C74801F02DF92846FFF76E
:1002200091FFFFF7CCFF06461021C24801F021F9EB
:10023000304670BD70B505460C462846FFF7E3FF13
:10024000064646EA04012846FFF7A4FF70BD70B5D4
:1002500005460C462846FFF7D6FF064626EA040167
:100260002846FFF797FF70BD2DE9FE4F06468846EA
:1002700091469A46DDF830B00220029000200190AD
:1002800000900C2E06D00E2E09D1122001901020C5
:10029000009005E0772001903020009000E000BF42
:1002A00000BF019840F080010220FFF773FF80211A
:1002B0000420FFF7CCFF00210120FFF76BFF802116
:1002C0000A20FFF7B7FF002505E018F80510092000
:1002D000FFF760FF6D1C4D45F7D331460120FFF756
:1002E00059FF0C2E03D180210D20FFF7A3FF4FF4FF
:1002F0007A7500BF0420FFF786FF04466D1E35B1F6
:1003000004F0010018B9009820400028F2D08021A4
:100310000D20FFF79CFF95B30620FFF774FF00F058
:100320001B0068BB002002900198204000F00100F3
:1003300008B1012002900C2E24D10A20FFF763FFA0
:1003400004460C20FFF75FFF00F007072FB1601E87
:1003500007EBC000CBF8000002E0E000CBF80000A3
:1003600004B90124122C00DD1224002505E0092027
:10037000FFF749FF0AF805006D1CA542F7D301E01D
:100380000220029080210C20FFF754FF0021012061
:10039000FFF700FF0298BDE8FE8F2DE9F041074608
:1003A0008846154604210520FFF751FF0021012052
:1003B000FFF7F0FE80210A20FFF73CFF002405E054
:1003C000395D0920FFF7E6FE601CC4B24445F7DB47
:1003D00003210120FFF7DEFEFF2400BF0520FFF709
:1003E00012FF0646601EC4B21CB106F004000028CD
:1003F000F4D02220FFF707FF28702120FFF703FF2A
:100400006870BDE8F081F0B587B005460E46302033
:100410008DF808008DF809500DF10A02022102A89A
:10042000FFF7BBFF01A802AB042202A900900C2039
:10043000FFF71AFF074667B90198902809D10024F1
:1004400004E002A8005D3055601CC4B2102CF8DB3B
:1004500000E00227384607B0F0BD2DE9F04387B031
:1004600006460F46904699468DF808608DF809704B
:10047000002406E018F8041002AAA01C1154601C05
:10048000C4B2062CF6DB002407E019F8041002AA17
:1004900004F108001154601CC4B2062CF5DB01A85D
:1004A00002AB0C2202A900900E20FFF7DDFE0546EC
:1004B0002DB90820FFF7A7FE00F0080000B90225BB
:1004C000284607B0BDE8F08370B588B00546932094
:1004D0008DF80C0070208DF80D0000208DF81200B2
:1004E00000240BE0295D03AAA01C11549DF8120002
:1004F000295D48408DF81200601CC4B2042CF1DB69
:100500000DF11302072103A8FFF747FF0821084652
:10051000FFF79DFE02A803AB092203A900900C205F
:10052000FFF7A2FE06463EB90298182804D100261D
:1005300003E00000000801400226304608B070BD0C
:1005400070B50546002446E0285DC11700EB117127
:100550000911FE4A02F81410104610F81400092878
:1005600007DD104610F814003730114601F814006A
:1005700006E0F64810F814003030F44901F8140091
:10058000285DC11700EB11710911A0EB01110122C7
:1005900002EB4402ED4B9954012000EB4400194654
:1005A000085C09280ADD012000EB4400085C3730B4
:1005B000012101EB44011A4650540AE0012000EBEE
:1005C0004400E249085C3030012101EB4401DF4A7C
:1005D0005054601CC4B2042CB6DB0020DB49087206
:1005E000DBA001F0E1FB4FF48051DB4800F041FF5C
:1005F000C82000F0AEFC4FF48051D74800F03BFF1C
:1006000070BDF0B587B00546002708210846FFF702
:100610001EFE00210D20FFF7BDFD80210E20FFF7FB
:1006200016FE93208DF8080020208DF8090001A8FF
:1006300002AB022202A900900C20FFF715FE06462D
:1006400086B9002407E002A8005D285502A8005DD5
:100650004740601CC4B2042CF5DB02A8005DB84220
:1006600000D0022680210E20FFF7E4FD304607B0BF
:10067000F0BD70B588B005460C4608210846FFF766
:10068000E6FD07210D20FFF785FD03211420FFF76C
:10069000D1FD8DF80C5002A803AB012203A90090F4
:1006A0000C20FFF7E1FD06464EB90298102806D14E
:1006B0009DF80C0020709DF80D00607000E002268F
:1006C000304608B070BD10B5A4495220FFF7D1FFE5
:1006D000A34908700846007830B902200870A14884
:1006E000FFF78FFF9E4908709D48007800287CD155
:1006F00002209B4908709B48FFF722FF9948007829
:1007000099490978884217D196484078964949789E
:10071000884211D1934880789349897888420BD1D7
:100720009048C0789049C978884205D101208F4906
:1007300008708FA001F038FB8A4800789249097848
:10074000884217D1874840788F494978884211D12B
:10075000844880788C49897888420BD18148C07858
:100760008949C978884205D101208849087088A044
:1007700001F01AFB7B4800788B490978884217D131
:100780007848407888494978884211D175488078FE
:100790008549897888420BD17248C0788249C978E6
:1007A000884205D101208149087081A001F0FCFA3E
:1007B0006C48007884490978884219D169484078A2
:1007C00081494978884213D1664880787E49897882
:1007D00088420DD16348C0787B49C978884207D1E7
:1007E00001207A4908707AA000E024E001F0DCFAE8
:1007F0005C4800787C490978884217D1594840788C
:1008000079494978884211D1564880787649897863
:1008100088420BD15348C0787349C978884205D1C2
:1008200001207249087072A001F0BEFA4D48FFF72E
:100830004BFE4B4908704A48007850B9022048499D
:100840000870484B704A09216020FFF706FE4449B2
:1008500008704348007848B90220414908706B4944
:100860006B480078FFF7CFFD3D4908703C480078A1
:1008700028B902203A490870642000F06AFB10BDD4
:1008800010B51420FFF7BFFC044604F0030018B9AC
:1008900003211420FFF7CEFC10BD10B50446412CF7
:1008A00024D108210846FFF7D2FC3D211120FFF793
:1008B00071FC86211720FFF76DFC7F212620FFF7B2
:1008C00069FC1E212D20FFF765FC00212C20FFF77D
:1008D00061FC8D212A20FFF75DFC3E212B20FFF7D4
:1008E00059FC022000F011FBFFF7CAFF10BD10B544
:1008F0000121194800F0BDFD012000F006FB012197
:10090000154800F0B8FD012000F0FFFA012112485F
:1009100000F0AFFD012000F0F8FA0F210120FFF7F1
:1009200039FC00BF0120FFF76EFC00F0100000282A
:10093000F8D1012000F0E9FA3D211120FFF72AFC4F
:100940001E212D20FFF726FC002163E080000020FF
:1009500025730D0A00000000000C0140000000207B
:100960003C000020020000200C00002006000020B7
:100970000D0A54686520557365722069733A636186
:1009800072645F300D0A0000100000200700002094
:100990000D0A54686520557365722069733A636166
:1009A00072645F310D0A000014000020080000206E
:1009B0000D0A54686520557365722069733A636146
:1009C00072645F320D0A0000180000200900002048
:1009D0000D0A54686520557365722069733A636126
:1009E00072645F330D0A00001C0000200A00002022
:1009F0000D0A54686520557365722069733A636106
:100A000072645F340D0A0000200000207000002096
:100A10003D0000202C20FFF7BDFB8D212A20FFF791
:100A2000B9FB3E212B20FFF7B5FB40211520FFF736
:100A3000B1FB10BD08B501210C2000F029FF1020EA
:100A4000ADF800008DF8030003208DF80200694620
:100A50006C4800F061FC2020ADF8000010208DF8FB
:100A6000030003208DF802006946664800F054FC3C
:100A70004020ADF8000004208DF8030003208DF81D
:100A8000020069465F4800F047FC8020ADF8000096
:100A900010208DF8030003208DF8020069465948A4
:100AA00000F03AFC0120ADF8000010208DF80300A2
:100AB00003208DF802006946534800F02DFC08BD64
:100AC00010B5FFF7B7FF01214F4800F0D2FC10210D
:100AD0004C4800F0CEFCFFF70AFF4120FFF7DDFE97
:100AE00010BD10B503211420FFF7B1FB10BDF0B508
:100AF00087B006460F46A0208DF808008DF80960E3
:100B00000DF10A02022102A8FFF747FC01A802AB7F
:100B1000042202A900900C20FFF7A6FB054645B968
:100B20000198042805D19DF8080000F00F000A285C
:100B300000D0022535BB1022394602A801F010F979
:100B4000002404E0385D02A90855601CC4B2102CD2
:100B5000F8DB06AA102102A8FFF71FFC01A802ABD0
:100B6000122202A900900C20FFF77EFB054645B932
:100B70000198042805D19DF8080000F00F000A280C
:100B800000D00225284607B0F0BD00B587B0502040
:100B90008DF8080000208DF809000DF10A020221ED
:100BA00002A8FFF7FAFB01A802AB042202A90090F9
:100BB0000C20FFF759FB002007B000BDF8B5044634
:100BC0000D4617461E460020009069465220FFF74A
:100BD00050FD6846FFF715FD2046FFF775FC2346DC
:100BE0002A4610216020FFF738FC27B1314610203B
:100BF000FFF709FC03E031461020FFF778FFFFF70D
:100C0000C4FFF8BD00080140000C014008B50121F7
:100C1000082000F03DFE4FF40070ADF800001020F9
:100C20008DF8030003208DF802006946044800F0A7
:100C300073FB4FF40071024800F01DFC08BD00007A
:100C4000000C014008B50121082000F021FE4FF4FE
:100C50008050ADF8000010208DF8030003208DF8BF
:100C600002006946044800F057FB4FF480510248E7
:100C700000F001FC08BD0000000C014010B500F0C0
:100C80002BF900F0A6F9FFF7C1FFFFF7DBFFFFF735
:100C900017FF4FF48051094800F0EBFBC82000F02B
:100CA00058F94FF48051054800F0E5FB10BDFFF7FF
:100CB000E5FF01E0FFF707FDFCE70000000C014045
:100CC00010B540F225510B4801F006F818B109485B
:100CD00000F082FFC4B210BD704700BFFEE700BF46
:100CE000FEE700BFFEE700BFFEE7704770477047B2
:100CF00070470000003801400CB5002001900090C2
:100D00006C48006840F480306A49086000BF694858
:100D1000006800F4003000900198401C0190009899
:100D200018B90198B0F5A06FF1D16248006800F4DD
:100D3000003010B10120009001E0002000900098E8
:100D4000012843D15C48006840F010005A4908600F
:100D50000846006820F0030008600846006840F07C
:100D6000020008605348406852494860084640689D
:100D700048600846406840F4806048600846406823
:100D800020F47C1048600846406840F4E810486051
:100D90000846006840F08070086000BF4548006861
:100DA00000F000700028F9D04248406820F00300AD
:100DB000404948600846406840F00200486000BF73
:100DC0003C48406800F00C000828F9D10CBD10B573
:100DD000FFF792FF10BD10B53648006840F00100E3
:100DE0003449086008464068344908403149486041
:100DF00008460068324908402E49086008460068E5
:100E000020F4802008600846406820F4FE00486016
:100E10004FF41F008860FFF7DAFF4FF000602949A8
:100E2000086010BD10B5002100200022214B5B6836
:100E300003F00C0121B1042906D0082928D107E0CC
:100E4000214B224C236027E01F4B204C236023E0E2
:100E5000184B5B6803F47010164B5B6803F4803228
:100E6000022303EB904022B9194B4343174C2360F4
:100E70000DE0104B5B6803F4003323B1144B434384
:100E8000124C236003E0104B4343104C236003E0FB
:100E90000D4B0E4C236000BF00BF064B5B68C3F3D5
:100EA00003130C4CE15C094B1B68CB40074C2360DF
:100EB00010BD000000100240002002400000FFF8BA
:100EC000FFFFF6FE08ED00E000127A00400000206F
:100ED00000093D004400002010B56FF0040000F050
:100EE0009CF92E4800682E49B0FBF1F02D4908709E
:100EF0000846007800EB4001C1EBC0104FF6FF71CF
:100F000001EAC0002849088010BD0146254A127830
:100F10004A434FF0E0235A6100229A611A4612694F
:100F200042F001021A6100BF4FF0E022106900F0A8
:100F300001021AB100F48032002AF5D04FF0E0220D
:100F4000126922F001024FF0E0231A6100229A6137
:100F500070470146144A12884A434FF0E0235A6111
:100F600000229A611A46126942F001021A6100BF1A
:100F70004FF0E022106900F001021AB100F4803253
:100F8000002AF5D04FF0E022126922F001024FF062
:100F9000E0231A6100229A6170470000400000209F
:100FA00000127A00540000205600002008B54FF4CB
:100FB000A06000F0E3F825208DF8000001208DF8F6
:100FC00001008DF802008DF80300684600F0DBF8A0
:100FD00008BD00B585B00121042000F059FC0121B5
:100FE000880300F055FC4FF40070ADF81000182095
:100FF0008DF8130003208DF8120004A9544800F066
:101000008BF94FF48060ADF8100004208DF81300C8
:1010100004A94F4800F080F94FF4E130009000201F
:10102000ADF80400ADF80600ADF80800ADF80C000E
:101030000C20ADF80A006946464800F0D0FC4FF499
:10104000A06000F09BF8FFF7B1FF012240F22551AC
:10105000404800F05CFD01213E4800F04CFD05B029
:1010600000BD70B504460D462946204600F0B0FD8F
:1010700000BF8021204600F019FE0028F9D070BD85
:101080002DE9F04107460D461646002405E0295D8E
:101090003846FFF7E6FF601CC4B2B442F7DB00BF7E
:1010A0004021384600F002FE0028F9D0BDE8F0816A
:1010B00070B506460C46002500BF615D3046FFF75F
:1010C000D0FF6D1C605D0028F7D100BF4021304685
:1010D00000F0ECFD0028F9D070BD2DE9F041054687
:1010E0000C46260AE7B23146284600F071FD00BFE3
:1010F0008021284600F0DAFD0028F9D0394628463C
:1011000000F066FD00BF8021284600F0CFFD0028DA
:10111000F9D0BDE8F08170B504460D46E1B20D4846
:1011200000F056FD00BF80210A4800F0BFFD0028F6
:10113000F9D0204670BD10B5044600BF20210548F7
:1011400000F0B4FD0028F9D0024800F045FD10BDC4
:101150000008014000380140064880470648004723
:10116000FEE7FEE7FEE7FEE7FEE7FEE7FEE7FEE757
:10117000FEE7FEE7D70D00083101000831490143C1
:10118000314A1160704770B5002100230F22C478E6
:1011900004B32D4C246804F4E064C4F5E064210A2F
:1011A000C1F10403CA40447804FA03F1847814407E
:1011B00021430901254C0678A155047804F01F0548
:1011C0000124AC4005786D11AD0005F1E025C5F8AE
:1011D000004109E0047804F01F050124AC401C4DD7
:1011E0000678761145F8264070BD1A4A0A40024337
:1011F000154B1B1F1A60704739B1134A121D126834
:101200000243114B1B1D1A6006E00F4A121D1268A3
:1012100082430D4B1B1D1A607047042808D14FF004
:10122000E021096941F004014FF0E022116107E07B
:101230004FF0E021096921F004014FF0E022116133
:10124000704700000000FA050CED00E000E400E04B
:1012500080E100E080FFFF1F10B50446CC488442C7
:1012600008D10121042000F02DFB0021042000F012
:1012700029FB46E0C748844208D10121082000F03C
:1012800021FB0021082000F01DFB3AE0C248844207
:1012900008D10121102000F015FB0021102000F0E2
:1012A00011FB2EE0BD48844208D10121202000F02E
:1012B00009FB0021202000F005FB22E0B848844211
:1012C00008D10121402000F0FDFA0021402000F06B
:1012D000F9FA16E0B348844208D10121802000F0D9
:1012E000F1FA0021802000F0EDFA0AE0AE488442D5
:1012F00007D10121801500F0E5FA0021A01500F0CA
:10130000E1FA10BD10B50121084600F0DBFA00211A
:10131000012000F0D7FA10BD2DE9F041024600256A
:101320000026002000230024002791F803C00CF0C1
:101330000F0591F803C00CF0100CBCF1000F03D0A6
:1013400091F802C04CEA050591F800C0BCF1000F0D
:1013500031D0146800202BE04FF0010C0CFA00F3A0
:10136000B1F800C00CEA03069E4220D183004FF082
:101370000F0C0CFA03F7BC4305FA03FC4CEA040417
:1013800091F803C0BCF1280F06D14FF0010C0CFA04
:1013900000FCC2F814C00AE091F803C0BCF1480F89
:1013A00005D14FF0010C0CFA00FCC2F810C0401C33
:1013B0000828D1D31460B1F800C0BCF1FF0F34DDB0
:1013C000546800202EE000F1080C4FF0010808FAE4
:1013D0000CF3B1F800C00CEA03069E4221D1830051
:1013E0004FF00F0C0CFA03F7BC4305FA03FC4CEA70
:1013F000040491F803C0BCF1280F05D100F1080CDA
:1014000008FA0CF8C2F8148091F803C0BCF1480F38
:1014100007D100F1080C4FF0010808FA0CF8C2F8E7
:101420001080401C0828CED35460BDE8F0814FF6F0
:10143000FF710180022181700421C1707047024652
:10144000002093680B400BB1012000E000207047A2
:101450000146886880B2704702460020D3680B407E
:101460000BB1012000E0002070470146C86880B23F
:10147000704701617047416170470AB1016100E046
:1014800041617047C16070474FF480320A43826106
:101490008161826182698269704702460020434B04
:1014A00018684FF68073184040EA021008433F4B1B
:1014B000186070473E49C8617047F0B50A4600237E
:1014C00000240021002500F00046B6F1004F02D1B3
:1014D000364EF16901E0354E7168C0F3034583B2C1
:1014E00000F44016B6F5401F08D121F070612F4E70
:1014F000766826F070662D4F7E6012E000F480164C
:10150000B6F5801F06D1032606FA05F4A14341F083
:10151000706106E0460D360103FA06F6B14341F06C
:10152000706122B1460D360103FA06F6314300F030
:101530000046B6F1004F02D11C4EF16101E01B4E96
:101540007160F0BD30B500228B071C0F0F2303FA2A
:1015500004F2164B08338C1053F824309343134C89
:1015600008348D1044F8253023468C1053F824306D
:101570008C07240F00FA04F423430C4C08348D101C
:1015800044F8253030BD0A49DC310860704700005E
:1015900000080140000C014000100140001401400F
:1015A00000180140001C01400020014000000140E3
:1015B00000002042DF48006840F00100DD4908607B
:1015C00008464068DC490840DA4948600846006837
:1015D000DA490840D74908600846006820F48020AE
:1015E00008600846406820F4FE0048604FF41F0081
:1015F00088607047CF49096821F48031CD4A116075
:101600001146096821F480211160B0F5803F03D0B4
:10161000B0F5802F0ED106E0C649096841F480314B
:10162000C44A116007E0C349096841F4A021C14AD6
:10163000116000E000BF00BF704710B501460022F6
:10164000002300204A11012A02D1BA4C236806E087
:10165000022A02D1B74C236A01E0B64C636A01F05A
:101660001F02012494401C400CB1012000E0002026
:1016700010BD38B5002000900024002500BF3120A7
:10168000FFF7DBFF05460098401C00900098B0F57E
:10169000A06F01D0002DF2D03120FFF7CEFF08B1AE
:1016A000012400E00024204638BD01460020A14A64
:1016B000106820F0F80040EAC10010607047A049AF
:1016C00008607047024600209A4B586820F47C104E
:1016D00042EA01031843974B5860704798490866DF
:1016E000704701460020934A506820F003000843E9
:1016F000506070478F48406800F00C00704701460A
:1017000000208C4A506820F0F00008435060704779
:1017100001460020874A506820F4E060084350608A
:10172000704701460020834A506820F4605040EA28
:10173000C1005060704729B17E4A527A02437D4B06
:101740005A7204E07B4A527A82437A4B5A7270474B
:101750007B49D8310860704701460020754A5068BF
:1017600020F440400843506070470021714A203205
:101770001170704A82F82010012802D004280AD182
:1017800004E001216B4A2032117005E00521694A0D
:101790002032117000E000BF00BF70476949086047
:1017A00070476449096A0143624A1162704765499A
:1017B00044390860704730B500210022002400231E
:1017C0005C4D6D6805F00C0121B1042905D0082994
:1017D00023D105E05C4D056022E05B4D05601FE014
:1017E000544D6D6805F47012524D6D6805F48034E7
:1017F000022505EB92421CB9544D554305600BE0A0
:101800004C4D6D6805F400351DB1504D55430560D4
:1018100002E04D4D5543056002E04B4D056000BFB1
:1018200000BF444D6D6805F0F0010909484D6B5C3F
:101830000568DD4045603F4D6D6805F4E061090ACB
:10184000434D6B5C4568DD4085603A4D6D6805F43D
:101850006051C90A3E4D6B5C4568DD40C560354D41
:101860006D6805F44041890B3A4D6B5CC568B5FB6A
:10187000F3F5056130BD29B12E4A526902432D4B63
:101880005A6104E02B4A526982432A4B5A617047DD
:1018900029B1284A92690243264B9A6104E0254AFD
:1018A00092698243234B9A61704729B1214AD269D8
:1018B0000243204BDA6104E01E4AD26982431D4B89
:1018C000DA61704729B11B4AD2680243194BDA60CA
:1018D00004E0184AD2688243164BDA60704729B197
:1018E000144A12690243134B1A6104E0114A126947
:1018F0008243104B1A6170471249403908607047A3
:101900000F49C86470470B49C87170470948406A5D
:1019100040F0807007494862704701460020054A40
:1019200092680A400AB1012000E000207047014996
:1019300088727047001002400000FFF8FFFFF6FEBB
:10194000000042428004424200127A0000093D0039
:10195000580000206800002010B50446FB4884426F
:1019600009D101218803FFF7ADFF00214FF480402A
:10197000FFF7A8FF32E0F648844209D1012148046C
:10198000FFF7ADFF00214FF40030FFF7A8FF25E07F
:10199000F048844209D101218804FFF7A0FF00210B
:1019A0004FF48020FFF79BFF18E0EB48844209D1F9
:1019B0000121C804FFF793FF00214FF40020FFF737
:1019C0008EFF0BE0E548844208D101210805FFF7AE
:1019D00086FF00214FF48010FFF781FF10BD2DE935
:1019E000F04786B005460E460024A24600BFA14639
:1019F0000027B08900B100BF2F462C8A4CF6FF703B
:101A00000440F08804432C82AC894EF6F310044065
:101A1000B08831890843718908430443AC81AC8A9A
:101A20004FF6FF400440B0890443AC8201A8FFF7A1
:101A3000C2FEC648874202D1DDF810A001E0DDF801
:101A40000CA0A88900F4004040B10AEBCA0000EBEA
:101A50000A1031684900B0FBF1F807E00AEBCA0050
:101A600000EB0A1031688900B0FBF1F86420B8FB84
:101A7000F0F004012009642101FB1089A88900F419
:101A8000004040B1322000EBC900B0FBF1F000F0A3
:101A90000700044308E0322000EB09106421B0FB8A
:101AA000F1F000F00F0004432C8106B0BDE8F08790
:101AB0004FF41651016000218180C18001810C2109
:101AC000418100218181704710B502460020108AB3
:101AD0004FF2FF0318400B884C8823438C88234324
:101AE000CC8823431843108210BD0021018041801F
:101AF0008180C180704721B1828942F40052828185
:101B000004E082894DF6FF731A4082817047F0B578
:101B10000346002400260025002040F66A17B9423B
:101B200000D100BF1846C1F3421401F01F0601277F
:101B300007FA06F5012C01D10C3004E0022C01D18A
:101B4000103000E014301AB107682F43076002E03C
:101B50000768AF430760F0BD1AB1838A0B438382E5
:101B600002E0838A8B4383827047028A4FF6F073C8
:101B70001A400282028A0A430282704782894FF227
:101B8000FF731A40828182890A438281704721B1A2
:101B9000828942F00202828104E082894FF6FD735D
:101BA0001A4082817047028A4FF6DF731A40028220
:101BB000028A0A430282704721B1028A42F48042BB
:101BC000028204E0028A4BF6FF731A4002827047D9
:101BD000C1F308028280704701468888C0F308007C
:101BE0007047818941F0010181817047028BD2B237
:101BF0000283028B42EA012202837047028B02F4C5
:101C00007F420283028B0A430283704721B1828A9A
:101C100042F02002828204E0828A4FF6DF731A408B
:101C20008282704721B1828A42F01002828204E0EF
:101C3000828A4FF6EF731A408282704721B1828AFE
:101C400042F00802828204E0828A4FF6F7731A405B
:101C50008282704721B1828942F40042828103E08E
:101C60008289C2F30E028281704721B1828A42F4D6
:101C70000062828204E0828A4FF2FF731A408282FD
:101C80007047828A4FF6FB731A408282828A0A4327
:101C90008282704721B1828A42F00202828204E08D
:101CA000828A4FF6FD731A408282704702460020F6
:101CB000B1F5007F00D100BF13880B400BB10120AC
:101CC00000E00020704701F40072B2F5007F00D1FF
:101CD00000BFCA430280704770B50246002400234B
:101CE0000025002040F66A16B14200D100BFC1F3C2
:101CF000421501F01F03012606FA03F3012D02D15C
:101D00009689334006E0022D02D1168A334001E065
:101D1000968A33400C12012606FA04F416883440E1
:101D200013B10CB1012000E0002070BD10B50022FD
:101D3000002340F66A14A14200D100BF0A12012418
:101D40009440A3B2DC43048010BD00000038014081
:101D50000044004000480040004C0040005000405B
:101D600040EA01039B0703D009E008C9121F08C01D
:101D7000042AFAD203E011F8013B00F8013B521E9D
:101D8000F9D27047064C074D06E0E06840F00103C9
:101D900094E8070098471034AC42F6D3FEF7CCF92C
:101DA000BC1E0008DC1E00080FB4054B10B503A9CB
:101DB000044A029800F017F810BC5DF814FB00000C
:101DC000171100086C00002002E008C8121F08C1AB
:101DD000002AFAD170477047002001E001C1121FAC
:101DE000002AFBD170472DE9F84F99469246884664
:101DF0000546002706E025280AD051464A46904766
:101E00006D1C7F1C28780028F5D13846BDE8F88F76
:101E1000002315F8011F18462E2915D115F8011FAA
:101E200004232A290DD06FF02F022978A1F1300464
:101E3000092C09D800EB800002EB400008446D1C1F
:101E4000F3E758F8040B6D1C2A78002ADDD0632ACA
:101E500007D0732A0FD0104651464A4690477F1C40
:101E60002AE018F8042B8DF8002000218DF80110CD
:101E70006E46012103E058F8046B4FF0FF315A071A
:101E80004FF0000401D409E0641C84420BDA8C4258
:101E9000FADB325D002AF7D105E0641C8C42FCDBE2
:101EA000305D0028F9D1274404E016F8010B5146B3
:101EB0004A469047641EF8D26D1CA3E7DC1E00085A
:101EC0000000002070000000C81D00084C1F000822
:101ED0007000002020040000D81D00080000000051
:101EE0000000000000000000C43A68D9536A0B01EA
:101EF000D0791F39B0B18FA5059E0A88FFFFFFFF7B
:101F0000FFFFAA07020009BC000000000000FF0755
:101F10008029FFFFFFFFFFFF0008000000A24A0426
:101F20000000000000000000010203040607080989
:101F3000000000000000000001020304010203048D
:0C1F400006070809020406080000000063
:0400000508000131BD
:00000001FF
